:100000000EC028C027C026C025C024C023C022C0DF
:1000100021C020C0DBC01EC01DC01CC01BC01124DD
:100020001FBECFE5D2E0DEBFCDBF10E0A0E6B0E05E
:10003000E0EEF2E002C005900D92AA3CB107D9F7BC
:1000400011E0AAECB0E001C01D92A03DB107E1F7BC
:1000500010D144C1D5CFCF93DF936091C800262F34
:100060002695EEECF0E080E090E030E08217930718
:1000700034F4AC015595479541930196F7CF80E054
:1000800090E070E0F901E253FF4FD901A61BB70BD6
:10009000B395AC01420F531F461757075CF4EF01AD
:1000A000C80FD91FAD01480F591F55954795488373
:1000B0000196EFCFDF91CF910895DF92EF92FF92FB
:1000C0000F931F93CF93DF9300E610E0C9EADFEFB1
:1000D000EFE7EE2EF12CF801D1908F01ED2DE29596
:1000E000EF70F0E0E254FF4F80818093C800B3DFEF
:1000F000D3FA222720F92093CD00C70102C0880F30
:10010000991F2A95E2F789BD40E08D2D877090E018
:10011000242F30E02817390724F52091CD00222321
:10012000A9F0EFE7F5EB21E0E150F0402040E1F7E6
:1001300000C00000EFECF4E83197F1F700C00000D8
:10014000EFE7FEE33197F1F700C00000FFE725EB92
:1001500031E0F15020403040E1F700C000004F5F37
:10016000D7CF8C2F895A883568F42196C730D105AE
:1001700009F0B1CFDF91CF911F910F91FF90EF90D8
:10018000DF90089520E0822F90E08C179D076CF798
:100190008091CD00882391F08FE39CE90197F1F7DE
:1001A00000C00000EFE0F7E23197F1F700C0000077
:1001B0008FE99FE00197F1F700C00000EFE3FCE951
:1001C0003197F1F700C000002F5FDDCF1F920F9233
:1001D0000FB60F9211242F933F934F938F939F93BA
:1001E000AF93BF93EF93FF93E091CF01F0E0E25321
:1001F000FF4F80818EBD8091CB009091CC003091DB
:10020000CF01009779F4E32FF0E0E253FF4FA09184
:10021000CE01B0E0A253BF4F2C9126954081469568
:10022000240F208321E0230F2093CF013093CE01B0
:100230003091C80023130FC01092CF019C012F5F93
:100240003F4F3093CC002093CB00049721F41092C1
:10025000CC001092CB00FF91EF91BF91AF919F9195
:100260008F914F913F912F910F900FBE0F901F9044
:10027000189587B38B6187BB87B5826087BD2FEFE9
:1002800080E792E0215080409040E1F700C00000FC
:1002900087B58823E9F387B5826087BD81E680BF93
:1002A00080E88EBD82E08ABD81E083BF8EEF89BD8C
:1002B00080E189BFD0DE1092CF018FEF8093C8001C
:1002C0008093CE017894F9DE2FEF8BEA9DE02150E8
:1002D00080409040E1F700C00000F5CFF894FFCFD8
:1002E000525A525A123A123A022A022A123A5A3AE6
:1002F000224A224A325A325A421A422A523A5C124C
:100300003A123A224A224A325A325A424A3A2A1275
:100310003A123A224A224A325A325A421A3A4A5235
:100320005A525A123A123A022A022A123A5A3A22D5
:100330004A224A325A325A421A422A523A5C64716A
:0A0340007F8696A9B3C9E1FD800095
:00000001FF
