:100000000EC0C6C027C026C025C024C023C022C041
:1000100021C020C06AC01EC01DC01CC01BC011244E
:100020001FBECFE5D2E0DEBFCDBF10E0A0E6B0E05E
:10003000E8EDF3E002C005900D92AA3CB107D9F7B4
:1000400011E0AAECB0E001C01D92A13DB107E1F7BB
:10005000C8D0C0C1D5CFCF93DF9360916000262F69
:100060002695EFECF0E080E090E030E08217930717
:1000700034F4AC015595479541930196F7CF80E054
:1000800090E070E0F901E153FF4FD901A61BB70BD7
:10009000B395AC01420F531F461757075CF4EF01AD
:1000A000C80FD91FAD01480F591F55954795488373
:1000B0000196EFCFDF91CF91089514BE81B588618D
:1000C00081BD11BC089581B58D7D81BD81B58560EF
:1000D00081BD81B5886181BD81B58F7B81BD08956A
:1000E000C498B998C198EFDFFFCF1F920F920FB657
:1000F0000F9211242F933F934F938F939F93AF931E
:10010000BF93EF93FF93E091CC00F0E0E153FF4FFA
:1001100080818EBD8091CD009091CE003091CC0039
:10012000009779F4E32FF0E0E153FF4FA091CB006B
:10013000B0E0A153BF4F2C91269540814695240FE6
:10014000208321E0230F2093CC003093CB0030910B
:10015000600023130FC01092CC009C012F5F3F4F13
:100160003093CE002093CD00049721F41092CE005E
:100170001092CD00FF91EF91BF91AF919F918F9120
:100180004F913F912F910F900FBE0F901F90189598
:100190001F920F920FB60F9211242F933F934F93FC
:1001A0005F936F937F938F939F93AF93BF93EF93DF
:1001B000FF938091CF019091D001892B09F090DFBE
:1001C000FF91EF91BF91AF919F918F917F916F912F
:1001D0005F914F913F912F910F900FBE0F901F9005
:1001E00018956BDFBA98BC9AB99AC29A87B3867D84
:1001F00087BB88B3896288BB87B5826087BD2FEFD4
:1002000030E752E0215030405040E1F700C000009C
:1002100087B58823E9F387B5826087BD81E680BF13
:1002200080E88EBD82E08ABD81E083BF8EEF89BD0C
:1002300080E189BF10DF1092CC008FEF80936000C7
:100240008093CB00C498B998C19885B78C7F85BF3F
:10025000479A379885B7846885BF85B78B7F85BFF8
:100260008BB780648BBF8BB78F7D8BBF85B7877E45
:10027000806185BF85B7806285BF85B7846885BF8B
:100280008B7F85BF78948895F89485B78F7D85BFDF
:10029000C49AB99AC19A8FEF93ECE9E081509040EB
:1002A000E040E1F700C00000789481E090E0909396
:1002B000D0018093CF0108E010E0FFE7CF2ED12CD2
:1002C000E1E6EE2EE0E0FE2EC9EADFEFF701B190A5
:1002D0007F01EB2DE295EF70F0E0E154FF4F80815C
:1002E00080936000B8DEB3FA222720F92093CA0079
:1002F000C60102C0880F991F2A95E2F789BD40E028
:100300008B2D877090E0242F30E02817390724F5D3
:100310002091CA002223A9F0EFE7F5EB21E0E1509C
:10032000F0402040E1F700C00000EFECF4E8319726
:10033000F1F700C00000EFE7FEE33197F1F700C0EE
:100340000000FFE725EB31E0F15020403040E1F7BD
:1003500000C000004F5FD7CF8C2F895A883530F40A
:100360002196C730D10509F0B1CF24C020E0822FFB
:1003700090E08C179D07A4F78091CA00882391F024
:100380008FE39CE90197F1F700C00000EFE0F7E28E
:100390003197F1F700C000008FE99FE00197F1F776
:1003A00000C00000EFE3FCE93197F1F700C0000066
:1003B0002F5FDDCFFFEF2BEA3DE0F15020403040D2
:1003C000E1F700C00000015011090115110509F005
:0803D00077CF86DEF894FFCF21
:1003D80080525A525A123A123A022A022A123A5AA7
:1003E8003A224A224A325A325A421A422A523A5C2B
:1003F800123A123A224A224A325A325A424A3A2A7D
:10040800123A123A224A224A325A325A421A3A4A7C
:10041800525A525A123A123A022A022A123A5A3AAC
:10042800224A224A325A325A421A422A523A5C64C0
:0A043800717F8696A9B3C9E1FD00AB
:00000001FF
